:020000040800F2
:1000000000000220290C0008F10A0008F90A000883
:10001000010B0008090B0008110B0008000000008C
:10002000000000000000000000000000190B0008A4
:10003000270B000800000000350B0008430B0008E8
:10004000790C0008790C0008790C0008790C00087C
:10005000790C0008790C0008790C0008790C00086C
:10006000790C00084F0B00085D0B0008790C0008A4
:10007000790C0008790C0008790C0008790C00084C
:10008000790C0008790C0008790C000800000000C9
:100090000000000000000000000000006B0B0008E2
:1000A000790C0008790C0008790C0008790C00081C
:1000B000790C0008790C0008790C0008790C00080C
:1000C000790C0008790C0008790C0008790C0008FC
:1000D000790C0008790C0008790C00080000000079
:1000E000890B0008790C0008790C0008000000005A
:1000F000000000000000000000000000790C000873
:1001000000000000790C0008790C0008790C000848
:1001100000000000000000000000000000000000DF
:10012000790C0008790C0008790C0008790C00089B
:10013000790C000800000000000000000000000032
:10014000000000000000000000000000790C000822
:10015000790C0008790C0008790C0008790C00086B
:10016000790C0008790C0008000000000000000075
:10017000000000000000000000000000000000007F
:1001800000000000790C00080000000000000000E2
:08019000790C0008790C00084D
:1001A00010B5054C237833B9044B13B10448AFF3B1
:1001B00000800123237010BDB80000200000000063
:1001C000045C000808B5034B1BB103490348AFF3B7
:1001D000008008BD00000000BC000020045C000896
:1001E00001F0FF01102A2BDB10F0070F08D010F8E8
:1001F000013B013A8B422DD010F0070F42B3F6D1EC
:10020000F0B441EA012141EA014122F007047FF004
:1002100000070023F0E80256083C85EA010586EA5B
:10022000010685FA47F5A3FA87F586FA47F6A5FA97
:1002300087F68EB9EED1F0BC01F0FF0102F00702A3
:1002400032B110F8013B013A83EA010313B1F8D14E
:100250000020704701387047002D06BF354603382F
:10026000073815F0010F07D1013015F4807F02BF68
:10027000013015F4C03F0130F0BC0138704700BFB9
:1002800053B94AB9002908BF00281CBF4FF0FF31FD
:100290004FF0FF3000F088B9ADF1080C6DE904CEE5
:1002A00000F006F8DDF804E0DDE9022304B0704751
:1002B0002DE9F047089D0F4604468C46002B48D197
:1002C0008A42164661D9B2FA82F34BB1C3F12002D9
:1002D00001FA03FC20FA02F29E4042EA0C0C9C4018
:1002E0004FEA164EB7B2BCFBFEF1220C0EFB11CC4E
:1002F00042EA0C4201FB07F0904209D9B21801F121
:10030000FF3C80F0EE80904240F2EB8002393244B4
:10031000121AA4B2B2FBFEF00EFB102244EA024411
:1003200000FB07F7A74209D9341900F1FF3280F02A
:10033000DA80A74240F2D7803444023840EA0140D4
:10034000E41B00211DB1DC400023C5E90043BDE8EA
:10035000F0878B4206D90DB1C5E90001002108469E
:10036000BDE8F087B3FA83F1002948D1BB4202D33C
:10037000824200F20781841A67EB0302012094464F
:10038000002DE4D0C5E9004CE1E7002A00F092809E
:10039000B2FA82F3002B40F0A8808A1A4FEA164E78
:1003A0001FFA86FC0121200CB2FBFEF70EFB172280
:1003B00040EA02420CFB07F0904207D9B21807F15D
:1003C000FF3802D2904200F2E2804746121AA4B2ED
:1003D000B2FBFEF00EFB102244EA02440CFB00FCD0
:1003E000A44507D9341900F1FF3202D2A44500F226
:1003F000CB801046A4EB0C0440EA0740A2E7C1F111
:1004000020068B4022FA06FC4CEA030C07FA01F4A2
:1004100020FA06F3F7404FEA1C49234300FA01F89B
:100420001FFA8CFEB7FBF9F01C0C09FB107744EAAD
:10043000074400FB0EF7A74202FA01F20AD91CEBAF
:10044000040400F1FF3A80F09B80A74240F29880BC
:1004500002386444E41B9FB2B4FBF9F309FB134474
:1004600047EA044403FB0EFEA64509D91CEB04042D
:1004700003F1FF3780F08280A6457FD9023B6444B8
:1004800043EA0040A4EB0E04A0FB02E7BC42734623
:10049000B94663D360D05DB1B8EB030264EB0904E5
:1004A00004FA06F622FA01F31E43CC40C5E90064C3
:1004B00000214CE76208480842EAC1710B0C43EA8C
:1004C00000438AB242EA0342B3FBF6F1E407B446C2
:1004D0003746B6461F23B0FBF6F0D21B41EA004177
:1004E00061E7614614E7104628E7C3F1200120FACE
:1004F00001F29E4027FA01F19F403A434FEA164E1F
:100500001FFA86FCB1FBFEF70EFB1710110C41EA37
:10051000004107FB0CF8884504FA03F43AD9711836
:1005200007F1FF3001D288451FD8A1EB0801B1FBCC
:10053000FEF808FB0CF70EFB181192B242EA0142DA
:10054000BA422FD2B21808F1FF31C6D2BA42C4D291
:10055000A8F102013244C0E7F0459CD2BEEB020391
:1005600067EB0C070138B94695E7A6EB080841444C
:10057000B81EB1FBFEF808FB0CF7DCE73B467FE753
:10058000504667E70846FBE63444023832E7023F4C
:1005900032441BE7A1EB08013846B1FBFEF808FB2B
:1005A0000CF7C8E7414698E7704700BF80B500AF39
:1005B00000F064FB00F014F800F01AF900F0C0F845
:1005C00000F0ECF800F06AF80349044803F064F81E
:1005D00003F07BF8FCE700BFD4000020700100208E
:1005E00080B594B000AF07F12003302200211846F7
:1005F00004F082FE07F10C0300221A605A609A6030
:10060000DA601A610023BB60224B1B6C214A43F065
:10061000805313641F4B1B6C03F08053BB60BB689B
:1006200000237B601C4B1B681B4A43F44043136050
:10063000194B1B6803F440437B607B6802233B62D9
:100640000123FB6210233B630023BB6307F12003FC
:10065000184601F029FF0346002B01D000F046F9AF
:100660000F23FB6000233B6100237B610023BB6100
:100670000023FB6107F10C030021184602F08CF9FE
:100680000346002B01D000F031F900BF5037BD46C2
:1006900080BD00BF003802400070004080B584B0CB
:1006A00000AF3B4600221A605A609A60DA60214B24
:1006B000214A1A601F4B00225A601E4B00229A608A
:1006C0001C4B00221A611B4B00221A76194B002288
:1006D00083F82020174B0022DA62164B174A9A62E1
:1006E000144B0022DA60134B0122DA61114B002215
:1006F00083F830200F4B01225A610E4800F054FB62
:100700000346002B01D000F0F1F807233B600123E2
:100710007B600423BB603B461946064800F008FD99
:100720000346002B01D000F0E1F800BF1037BD46B2
:1007300080BD00BFD4000020002001400100000F58
:1007400080B500AF124B134A1A60114B124A5A601F
:100750000F4B00229A600E4B0022DA600C4B4FF4D4
:1007600080421A610A4B00225A61094B00229A61A9
:10077000074B0022DA61064B00221A62044801F09E
:10078000E5F90346002B01D000F0B0F800BF80BDB2
:100790001C01002000540040A086010080B500AF7D
:1007A000114B124A1A60104B4FF416525A600E4BFE
:1007B00000229A600C4B0022DA600B4B00221A6177
:1007C000094B0C225A61084B00229A61064B002209
:1007D000DA61054802F0BEFA0346002B01D000F0B2
:1007E00085F800BF80BD00BF7001002000100140EF
:1007F00080B588B000AF07F10C0300221A605A6080
:100800009A60DA601A610023BB60354B1B6B344A77
:1008100043F001031363324B1B6B03F00103BB6016
:10082000BB6800237B602E4B1B6B2D4A43F00203F9
:1008300013632B4B1B6B03F002037B607B6800226E
:100840001A21284801F050F94FF4E763FB604FF498
:1008500004133B6101237B6107F10C031946224815
:1008600000F0A6FF1A23FB6001233B6100237B619C
:100870000023BB6107F10C0319461A4800F098FFEA
:100880002023FB6000233B6101237B6107F10C0304
:100890001946144800F08CFF00220021092000F0C6
:1008A00050FF092000F069FF002200210A2000F01B
:1008B00048FF0A2000F061FF00220021172000F00D
:1008C00040FF172000F059FF00220021282000F0EF
:1008D00038FF282000F051FF00BF2037BD4680BD03
:1008E00000380240000402400000024080B400AF23
:1008F00072B600BF00BFFDE780B483B000AF002335
:100900007B60104B5B6C0F4A43F4804353640D4B88
:100910005B6C03F480437B607B6800233B60094B86
:100920001B6C084A43F080531364064B1B6C03F0A6
:1009300080533B603B6800BF0C37BD465DF8047BCD
:10094000704700BF0038024080B58AB000AF7860C1
:1009500007F1140300221A605A609A60DA601A6183
:100960007B681B68174A934227D100233B61164BD3
:100970005B6C154A43F480735364134B5B6C03F454
:1009800080733B613B690023FB600F4B1B6B0E4A7E
:1009900043F0010313630C4B1B6B03F00103FB607B
:1009A000FB6880237B610323BB610023FB6107F1AC
:1009B00014031946054800F0FBFE00BF2837BD466A
:1009C00080BD00BF0020014000380240000002400E
:1009D00080B58AB000AF786007F1140300221A6076
:1009E0005A609A60DA601A617B681B68194A934200
:1009F0002CD100233B61184B1B6B174A43F00203B9
:100A00001363154B1B6B03F002033B613B694FF40F
:100A100040737B611223BB610023FB6103233B62B4
:100A200004237B6207F1140319460C4800F0C0FE52
:100A30000023FB60084B1B6C074A43F4001313644C
:100A4000054B1B6C03F40013FB60FB6800BF2837E9
:100A5000BD4680BD00540040003802400004024002
:100A600080B58AB000AF786007F1140300221A60E5
:100A70005A609A60DA601A617B681B68194A93426F
:100A80002BD100233B61184B5B6C174A43F01003DA
:100A90005364154B5B6C03F010033B613B6900230F
:100AA000FB60114B1B6B104A43F0020313630E4BA8
:100AB0001B6B03F00203FB60FB68C0237B61022316
:100AC000BB610023FB6103233B6207237B6207F1C9
:100AD00014031946054800F06BFE00BF2837BD46D9
:100AE00080BD00BF001001400038024000040240F9
:100AF00080B400AF00BFFDE780B400AF00BFFDE7EA
:100B000080B400AF00BFFDE780B400AF00BFFDE7D9
:100B100080B400AF00BFFDE780B400AF00BFBD46AA
:100B20005DF8047B704780B400AF00BFBD465DF840
:100B3000047B704780B400AF00BFBD465DF8047B06
:100B4000704780B500AF00F0EBF800BF80BD80B506
:100B500000AF082000F0E2FF00BF80BD80B500AF0D
:100B6000102000F0DBFF00BF80BD80B500AF20206B
:100B700000F0D4FF4FF4807000F0D0FF4FF400700D
:100B800000F0CCFF00BF80BD80B500AF4FF48060A7
:100B900000F0C4FF00BF80BD80B586B000AF7860B4
:100BA000144A154BD31A7B617B693B61134B1B685D
:100BB000002B02D1114B124A1A60104B1A687B6845
:100BC00013443A699A4207D204F09EFB03460C2272
:100BD0001A604FF0FF3309E0084B1B68FB60074BBE
:100BE0001A687B681344054A1360FB681846183777
:100BF000BD4680BD0000022000040000B8010020B6
:100C0000A007002080B400AF064BD3F88830054A17
:100C100043F47003C2F8883000BFBD465DF8047B22
:100C2000704700BF00ED00E0DFF834D0FFF7EAFFC7
:100C30000C480D490D4A002302E0D458C450043337
:100C4000C4188C42F9D30A4A0A4C002301E013600D
:100C50000432A242FBD304F05DFBFFF7A7FC704710
:100C60000000022000000020B8000020B896000814
:100C7000B80000209C070020FEE7000080B500AF10
:100C80000E4B1B680D4A43F4007313600B4B1B683B
:100C90000A4A43F480631360084B1B68074A43F415
:100CA00080731360032000F041FD0F2000F008F86E
:100CB000FFF722FE0023184680BD00BF003C024023
:100CC00080B582B000AF7860124B1A68124B1B7867
:100CD00019464FF47A73B3FBF1F3B2FBF3F3184602
:100CE00000F059FD0346002B01D001230EE07B6884
:100CF0000F2B0AD8002279684FF0FF3000F021FD59
:100D0000064A7B681360002300E001231846083779
:100D1000BD4680BD00000020080000200400002027
:100D200080B400AF064B1B781A46064B1B68134471
:100D3000044A136000BFBD465DF8047B704700BFE6
:100D400008000020BC01002080B400AF034B1B68EA
:100D50001846BD465DF8047B704700BFBC0100200B
:100D600080B584B000AF7860FFF7EEFFB8607B68B5
:100D7000FB60FB68B3F1FF3F05D00A4B1B781A46B6
:100D8000FB681344FB6000BFFFF7DEFF0246BB6851
:100D9000D31AFA689A42F7D800BF00BF1037BD4691
:100DA00080BD00BF0800002080B584B000AF78602F
:100DB0000023FB737B68002B01D1012333E07B68A8
:100DC0001B6C002B09D17868FFF7BEFD7B68002201
:100DD0005A647B68002283F83C207B681B6C03F01C
:100DE0001003002B18D17B681B6C23F4885323F06D
:100DF000020343F002027B681A64786800F0CAFAC2
:100E00007B6800225A647B681B6C23F0030343F069
:100E100001027B681A6401E00123FB737B680022F6
:100E200083F83C20FB7B18461037BD4680BD000090
:100E300080B485B000AF78600023BB607B6893F816
:100E40003C30012B01D1022397E07B68012283F81B
:100E50003C207B681B689B6803F00103012B18D0C2
:100E60007B681B689A687B681B6842F001029A6085
:100E7000454B1B68454AA2FB03239A0C13465B00B3
:100E80001344BB6002E0BB68013BBB60BB68002B46
:100E9000F9D17B681B689B6803F00103012B5FD1CC
:100EA0007B681B6C23F4E06323F0010343F480723E
:100EB0007B681A647B681B685B6803F48063002BA3
:100EC00007D07B681B6C23F4405343F480527B684B
:100ED0001A647B681B6C03F48053B3F5805F06D102
:100EE0007B685B6C23F006027B685A6402E07B68D7
:100EF00000225A647B68002283F83C20244BFB606C
:100F00007B681B686FF022021A60FB685B6803F065
:100F10001F03002B0FD17B681B689B6803F04053B5
:100F2000002B29D17B681B689A687B681B6842F09C
:100F300080429A6020E07B681B68164A93421BD16E
:100F40007B681B689B6803F04053002B14D17B68BF
:100F50001B689A687B681B6842F080429A600BE0CD
:100F60007B681B6C43F010027B681A647B685B6CC7
:100F700043F001027B685A64002318461437BD46CB
:100F80005DF8047B704700BF0000002083DE1B4338
:100F9000002301400020014080B483B000AF78609E
:100FA0007B6893F83C30012B01D1022321E07B6860
:100FB000012283F83C207B681B689A687B681B6869
:100FC00022F001029A607B681B689B6803F00103B2
:100FD000002B09D17B681B6C23F4885323F0010399
:100FE00043F001027B681A647B68002283F83C208E
:100FF000002318460C37BD465DF8047B704780B56A
:1010000084B000AF786039600023FB607B681B68A8
:101010009B6803F48063B3F5806F13D17B681B6812
:101020009B6803F48073B3F5807F0BD17B681B6CE6
:1010300043F020027B681A647B68002283F83C201E
:10104000012363E0FFF780FEF86021E03B68B3F125
:10105000FF3F1DD03B68002B07D0FFF775FE02460F
:10106000FB68D31A3A689A4212D27B681B681B68E5
:1010700003F00203022B0BD07B681B6C43F00402CD
:101080007B681A647B68002283F83C2003233DE0E0
:101090007B681B681B6803F00203022BD6D17B68B8
:1010A0001B686FF012021A607B681B6C43F40072BD
:1010B0007B681A647B681B689B6803F04053002BB5
:1010C00023D17B681B7E002B1FD17B681B68DB6AEA
:1010D00003F47003002B06D07B681B689B6803F445
:1010E0008063002B11D17B681B6C23F480727B68BA
:1010F0001A647B681B6C03F48053002B05D17B685A
:101100001B6C43F001027B681A64002318461037F9
:10111000BD4680BD80B483B000AF78607B681B683B
:10112000DB6C18460C37BD465DF8047B7047000049
:1011300080B485B000AF786039600023BB607B6805
:1011400093F83C30012B01D1022313E17B6801228B
:1011500083F83C203B681B68092B25D97B681B68FA
:10116000D9683B681B689BB21A4613465B00134460
:101170001E3B072202FA03F3DA437B681B680A402E
:10118000DA607B681B68D9683B689A683B681B68B3
:101190009BB2184603465B0003441E3B9A407B68A3
:1011A0001B680A43DA6022E07B681B6819693B68A8
:1011B0001B689BB21A4613465B001344072202FACF
:1011C00003F3DA437B681B680A401A617B681B687B
:1011D00019693B689A683B681B689BB218460346CE
:1011E0005B0003449A407B681B680A431A613B68B2
:1011F0005B68062B24D87B681B68596B3B685A6870
:1012000013469B001344053B1F2202FA03F3DA4303
:101210007B681B680A405A637B681B68596B3B6894
:101220001B689BB218463B685A6813469B001344E0
:10123000053B00FA03F27B681B680A435A634CE0E3
:101240003B685B680C2B24D87B681B68196B3B6878
:101250005A6813469B001344233B1F2202FA03F3F0
:10126000DA437B681B680A401A637B681B68196B4A
:101270003B681B689BB218463B685A6813469B0044
:101280001344233B00FA03F27B681B680A431A638A
:1012900023E07B681B68D96A3B685A6813469B0049
:1012A0001344413B1F2202FA03F3DA437B681B68B5
:1012B0000A40DA627B681B68D96A3B681B689BB28C
:1012C00018463B685A6813469B001344413B00FA9A
:1012D00003F27B681B680A43DA62294BFB607B6878
:1012E0001B68284A93420FD13B681B68122B0BD115
:1012F000FB685B6823F40002FB685A60FB685B686C
:1013000043F48002FB685A607B681B681D4A934265
:101310002BD13B681B681C4A934203D03B681B6877
:10132000112B22D1FB685B6823F48002FB685A60B2
:10133000FB685B6843F40002FB685A603B681B680B
:10134000114A934211D1114B1B68114AA2FB03238E
:101350009A0C13469B0013445B00BB6002E0BB6821
:10136000013BBB60BB68002BF9D17B68002283F88E
:101370003C20002318461437BD465DF8047B7047B7
:101380000023014000200140120000100000002056
:1013900083DE1B4380B485B000AF7860794BFB607F
:1013A000FB685B6823F44032FB685A60FB685A684C
:1013B0007B685B681A43FB685A607B681B685A68E5
:1013C0007B681B6822F480725A607B681B685968CE
:1013D0007B681B691A027B681B680A435A607B683A
:1013E0001B685A687B681B6822F040725A607B68F1
:1013F0001B6859687B689A687B681B680A435A6057
:101400007B681B689A687B681B6822F400629A609C
:101410007B681B6899687B68DA687B681B680A438D
:101420009A607B689B6A584A934222D07B681B680B
:101430009A687B681B6822F070629A607B681B6800
:1014400099687B689A6A7B681B680A439A607B6824
:101450001B689A687B681B6822F040529A607B6820
:101460001B6899687B68DA6A7B681B680A439A6024
:101470000FE07B681B689A687B681B6822F07062CB
:101480009A607B681B689A687B681B6822F04052F0
:101490009A607B681B689A687B681B6822F002026E
:1014A0009A607B681B6899687B681B7E5A007B6822
:1014B0001B680A439A607B6893F82030002B1BD08E
:1014C0007B681B685A687B681B6842F400625A603C
:1014D0007B681B685A687B681B6822F460425A600C
:1014E0007B681B6859687B685B6A013B5A037B68B1
:1014F0001B680A435A6007E07B681B685A687B6870
:101500001B6822F400625A607B681B68DA6A7B6899
:101510001B6822F47002DA627B681B68D96A7B68F8
:10152000DB69013B1A057B681B680A43DA627B684A
:101530001B689A687B681B6822F400729A607B685B
:101540001B6899687B6893F830305A027B681B6887
:101550000A439A607B681B689A687B681B6822F460
:1015600080629A607B681B6899687B685B699A02F5
:101570007B681B680A439A6000BF1437BD465DF85C
:10158000047B7047002301400100000F80B485B048
:1015900000AF78607B6803F00703FB600C4BDB68EF
:1015A000BB60BA684FF6FF031340BB60FB681A02CA
:1015B000BB68134343F0BF6343F40033BB60044A8A
:1015C000BB68D36000BF1437BD465DF8047B70472D
:1015D00000ED00E080B400AF044BDB681B0A03F0B1
:1015E00007031846BD465DF8047B704700ED00E038
:1015F00080B483B000AF0346FB7197F90730002B2E
:101600000BDBFB7903F01F02074997F907305B09F1
:10161000012000FA02F241F8232000BF0C37BD463A
:101620005DF8047B704700BF00E100E080B483B048
:1016300000AF03463960FB7197F90730002B0ADBD6
:101640003B68DAB20C4997F907301201D2B20B4469
:1016500083F800230AE03B68DAB20849FB7903F01B
:101660000F03043B1201D2B20B441A7600BF0C37B1
:10167000BD465DF8047B704700E100E000ED00E04E
:1016800080B489B000AFF860B9607A60FB6803F09D
:101690000703FB61FB69C3F10703042B28BF042385
:1016A000BB61FB690433062B02D9FB69033B00E0F5
:1016B00000237B614FF0FF32BB6902FA03F3DA4388
:1016C000BB681A407B699A404FF0FF317B6901FA91
:1016D00003F3D9437B680B40134318462437BD46B8
:1016E0005DF8047B7047000080B582B000AF786081
:1016F0007B68013BB3F1807F01D301230FE00A4AED
:101700007B68013B53600F214FF0FF30FFF78EFFE6
:10171000054B00229A60044B07221A6000231846EA
:101720000837BD4680BD00BF10E000E080B582B044
:1017300000AF78607868FFF729FF00BF0837BD4623
:1017400080BD80B586B000AF0346B9607A60FB7398
:1017500000237B61FFF73EFF78617A68B96878699A
:10176000FFF78EFF024697F90F3011461846FFF734
:101770005DFF00BF1837BD4680BD80B582B000AFA9
:101780000346FB7197F907301846FFF731FF00BF9A
:101790000837BD4680BD80B582B000AF78607868FC
:1017A000FFF7A2FF034618460837BD4680BD00007C
:1017B00080B489B000AF7860396000237B6100237A
:1017C0003B610023BB610023FB6159E10122FB69FE
:1017D00002FA03F37B613B681B687A6913403B6143
:1017E0003A697B699A4240F048813B685B6803F044
:1017F0000303012B05D03B685B6803F00303022B56
:1018000030D17B689B68BB61FB695B00032202FAF5
:1018100003F3DB43BA691340BB613B68DA68FB69D9
:101820005B0002FA03F3BA691343BB617B68BA69D0
:101830009A607B685B68BB610122FB6902FA03F373
:10184000DB43BA691340BB613B685B681B0903F06B
:101850000102FB6902FA03F3BA691343BB617B68B7
:10186000BA695A603B685B6803F00303032B17D027
:101870007B68DB68BB61FB695B00032202FA03F350
:10188000DB43BA691340BB613B689A68FB695B0044
:1018900002FA03F3BA691343BB617B68BA69DA6081
:1018A0003B685B6803F00303022B23D1FB69DA0872
:1018B0007B68083253F82230BB61FB6903F00703F1
:1018C0009B000F2202FA03F3DB43BA691340BB61AA
:1018D0003B681A69FB6903F007039B0002FA03F3F4
:1018E000BA691343BB61FB69DA087B680832B969DE
:1018F00043F822107B681B68BB61FB695B00032215
:1019000002FA03F3DB43BA691340BB613B685B68CF
:1019100003F00302FB695B0002FA03F3BA691343A5
:10192000BB617B68BA691A603B685B6803F440334B
:10193000002B00F0A2800023FB60574B5B6C564AE3
:1019400043F480435364544B5B6C03F48043FB606B
:10195000FB68524AFB699B08023352F82330BB6193
:10196000FB6903F003039B000F2202FA03F3DB433E
:10197000BA691340BB617B68494A934219D07B68BE
:10198000484A934213D07B68474A93420DD07B6804
:10199000464A934207D07B68454A934201D10423CB
:1019A00008E0072306E0032304E0022302E001230A
:1019B00000E00023FA6902F0030292009340BA6942
:1019C0001343BB613549FB699B080233BA6941F88F
:1019D0002320384B9B68BB613B69DB43BA691340EA
:1019E000BB613B685B6803F48013002B03D0BA69CA
:1019F0003B691343BB612F4ABB6993602D4BDB6886
:101A0000BB613B69DB43BA691340BB613B685B6800
:101A100003F40013002B03D0BA693B691343BB6185
:101A2000244ABB69D360234B5B68BB613B69DB43E2
:101A3000BA691340BB613B685B6803F40033002B59
:101A400003D0BA693B691343BB611A4ABB6953604F
:101A5000184B1B68BB613B69DB43BA691340BB6130
:101A60003B685B6803F48033002B03D0BA693B69A1
:101A70001343BB610F4ABB691360FB690133FB6110
:101A8000FB690F2B7FF6A2AE00BF00BF2437BD4617
:101A90005DF8047B704700BF003802400038014009
:101AA000000002400004024000080240000C024016
:101AB00000100240003C014080B485B000AF786067
:101AC0000B467B807B681A697B881340002B02D011
:101AD0000123FB7301E00023FB73FB7B18461437E3
:101AE000BD465DF8047B704780B483B000AF78607A
:101AF0000B467B8013467B707B78002B03D07A8863
:101B00007B689A6103E07B881A047B689A6100BF56
:101B10000C37BD465DF8047B7047000080B582B08D
:101B200000AF0346FB80084B5A69FB881340002B2B
:101B300006D0054AFB885361FB88184602F00EFB6D
:101B400000BF0837BD4680BD003C014080B584B071
:101B500000AF78607B68002B01D101232BE17B680B
:101B600093F83D30DBB2002B06D17B68002283F86E
:101B70003C207868FEF72CFF7B68242283F83D2008
:101B80007B681B681A687B681B6822F001021A6078
:101B90007B681B681A687B681B6842F400421A6005
:101BA0007B681B681A687B681B6822F400421A6015
:101BB00001F0A8F8F8607B685B68814A934207D817
:101BC000FB68804A934294BF01230023DBB206E006
:101BD000FB687D4A934294BF01230023DBB2002BB4
:101BE00001D00123E7E0FB68784AA2FB03239B0CAA
:101BF000BB607B681B685B6823F03F017B681B68E8
:101C0000BA680A435A607B681B681B6A23F03F016D
:101C10007B685B686A4A934202D8BB68013309E07B
:101C2000BB684FF4967202FB03F3694AA2FB0323DD
:101C30009B0901337A6812680B4313627B681B6847
:101C4000DB6923F44F4222F0FF027B685B685C494A
:101C50008B4219D8FB68591E7B685B685B00B1FB3F
:101C6000F3F3591C40F6FC730B40002B0AD0FB68C1
:101C7000591E7B685B685B00B1FBF3F30133C3F370
:101C80000B0351E004234FE07B689B68002B11D1CC
:101C9000FB68581E7B6859680B465B000B44B0FB21
:101CA000F3F30133C3F30B03002B0CBF0123002319
:101CB000DBB212E0FB68581E7B6859680B469B003C
:101CC0000B4499000B44B0FBF3F30133C3F30B0354
:101CD000002B0CBF01230023DBB2002B01D001231A
:101CE00022E07B689B68002B0ED1FB68581E7B6846
:101CF00059680B465B000B44B0FBF3F30133C3F3AD
:101D00000B0343F400430FE0FB68581E7B685968DF
:101D10000B469B000B4499000B44B0FBF3F30133DB
:101D2000C3F30B0343F44043796809681343CB6161
:101D30007B681B681B6823F0C0017B68DA697B68DD
:101D40001B6A1A437B681B680A431A607B681B681E
:101D50009B6823F4034323F0FF037A6811697A68D0
:101D6000D26811437A6812680B4393607B681B68E2
:101D7000DB6823F0FF017B685A697B689B691A4323
:101D80007B681B680A43DA607B681B681A687B689B
:101D90001B6842F001021A607B6800221A647B68AB
:101DA000202283F83D207B6800221A637B68002292
:101DB00083F83E20002318461037BD4680BD00BF83
:101DC000A08601007F841E00FF083D0083DE1B43C8
:101DD000D34D621080B588B002AFF8600846114656
:101DE0001A4603467B810B463B811346FB80FEF778
:101DF000ABFF7861FB6893F83D30DBB2202B40F0FD
:101E0000D9807B690093192301226D49F86800F09D
:101E100071F90346002B01D00223CCE0FB6893F854
:101E20003C30012B01D10223C5E0FB68012283F87D
:101E30003C20FB681B681B6803F00103012B07D0E3
:101E4000FB681B681A68FB681B6842F001021A6095
:101E5000FB681B681A68FB681B6822F400621A6042
:101E6000FB68212283F83D20FB68402283F83E2056
:101E7000FB6800221A64FB683A6A5A62FB68BA8CF3
:101E80005A85FB685B8D9AB2FB681A85FB684D4AE0
:101E9000DA62F8883A8979897B690193BB6A009391
:101EA0000346F86800F090F80346002B52D0012357
:101EB00081E07A69B96AF86800F036FA0346002BC7
:101EC0000DD0FB681B6C042B07D1FB681B681A68DC
:101ED000FB681B6842F400721A6001236BE0FB6828
:101EE0005B6A1A78FB681B681A61FB685B6A5A1C9C
:101EF000FB685A62FB681B8D013B9AB2FB681A852E
:101F0000FB685B8D9BB2013B9AB2FB685A85FB680C
:101F10001B685B6903F00403042B1BD1FB681B8D5A
:101F2000002B17D0FB685B6A1A78FB681B681A6184
:101F3000FB685B6A5A1CFB685A62FB681B8D013B9D
:101F40009AB2FB681A85FB685B8D9BB2013B9AB223
:101F5000FB685A85FB681B8D002BAAD17A69B96A88
:101F6000F86800F029FA0346002B0DD0FB681B6CC3
:101F7000042B07D1FB681B681A68FB681B6842F4D6
:101F800000721A60012316E0FB681B681A68FB6880
:101F90001B6842F400721A60FB68202283F83D201F
:101FA000FB68002283F83E20FB68002283F83C2077
:101FB000002300E0022318461837BD4680BD00BF4D
:101FC000020010000000FFFF80B588B002AFF8608B
:101FD000084611461A4603467B810B463B81134651
:101FE000FB80FB681B681A68FB681B6842F4807200
:101FF0001A607B6A00933B6A00224FF00111F86877
:1020000000F078F80346002B0DD0FB681B681B68B6
:1020100003F48073B3F5807F03D1FB684FF4007243
:102020001A6403235FE07B89DBB21A46FB681B68F6
:1020300002F0FE021A617B6A3A6A2D49F86800F0E4
:10204000D3F80346002B01D001234CE000237B6131
:10205000FB681B685B697B61FB681B689B697B6134
:102060007B697A6A396AF86800F05EF90346002BEA
:102070000DD0FB681B6C042B07D1FB681B681A682A
:10208000FB681B6842F400721A6001232BE0FB8896
:10209000012B05D13B89DAB2FB681B681A6121E08C
:1020A0003B891B0A9BB2DAB2FB681B681A617A6A29
:1020B000396AF86800F038F90346002B0DD0FB6848
:1020C0001B6C042B07D1FB681B681A68FB681B6834
:1020D00042F400721A60012305E03B89DAB2FB6822
:1020E0001B681A61002318461837BD4680BD00BF23
:1020F0000200010080B584B000AFF860B9603B60B9
:102100001346FB7148E03B68B3F1FF3F44D0FEF754
:102110001BFE0246BB69D31A3A689A4202D33B6857
:10212000002B39D1BB681B0CDBB2012B0DD1FB6836
:102130001B685B69DA43BB6813409BB2002B0CBF82
:1021400001230023DBB21A460CE0FB681B689B6985
:10215000DA43BB6813409BB2002B0CBF0123002362
:10216000DBB21A46FB799A4216D1FB6800221A6349
:10217000FB68202283F83D20FB68002283F83E2084
:10218000FB681B6C43F02002FB681A64FB680022AA
:1021900083F83C20012323E0BB681B0CDBB2012B3E
:1021A0000DD1FB681B685B69DA43BB6813409BB2C7
:1021B000002B0CBF01230023DBB21A460CE0FB68A6
:1021C0001B689B69DA43BB6813409BB2002B0CBFB2
:1021D00001230023DBB21A46FB799A4293D00023F5
:1021E00018461037BD4680BD80B584B000AFF8609A
:1021F000B9607A603B6071E0FB681B685B6903F45F
:102200008063B3F5806F23D1FB681B681A68FB6895
:102210001B6842F400721A60FB681B686FF48062EE
:102220005A61FB6800221A63FB68202283F83D2074
:10223000FB68002283F83E20FB681B6C43F004021D
:10224000FB681A64FB68002283F83C20012367E0E6
:102250007B68B3F1FF3F41D0FEF776FD02463B6855
:10226000D31A7A689A4202D37B68002B36D1BB68B6
:102270001B0CDBB2012B0CD1FB681B685B69DA43DA
:10228000BB6813409BB2002B14BF01230023DBB2B9
:102290000BE0FB681B689B69DA43BB6813409BB289
:1022A000002B14BF01230023DBB2002B16D0FB68E8
:1022B00000221A63FB68202283F83D20FB6800227D
:1022C00083F83E20FB681B6C43F02002FB681A6415
:1022D000FB68002283F83C20012321E0BB681B0C33
:1022E000DBB2012B0CD1FB681B685B69DA43BB686E
:1022F00013409BB2002B14BF01230023DBB20BE081
:10230000FB681B689B69DA43BB6813409BB2002BD8
:1023100014BF01230023DBB2002B7FF46DAF002339
:1023200018461037BD4680BD80B584B000AFF86058
:10233000B9607A6034E0F86800F086F80346002B54
:1023400001D0012334E0BB68B3F1FF3F28D0FEF792
:10235000FBFC02467B68D31ABA689A4202D3BB6878
:10236000002B1DD1FB681B685B6903F08003802B89
:1023700016D0FB6800221A63FB68202283F83D20F8
:10238000FB68002283F83E20FB681B6C43F02002B0
:10239000FB681A64FB68002283F83C20012307E0F5
:1023A000FB681B685B6903F08003802BC3D10023AB
:1023B00018461037BD4680BD80B584B000AFF860C8
:1023C000B9607A6034E0F86800F03EF80346002B0C
:1023D00001D0012334E0BB68B3F1FF3F28D0FEF702
:1023E000B3FC02467B68D31ABA689A4202D3BB6830
:1023F000002B1DD1FB681B685B6903F00403042BF1
:1024000016D0FB6800221A63FB68202283F83D2067
:10241000FB68002283F83E20FB681B6C43F020021F
:10242000FB681A64FB68002283F83C20012307E064
:10243000FB681B685B6903F00403042BC3D1002312
:1024400018461037BD4680BD80B483B000AF7860B9
:102450007B681B685B6903F48063B3F5806F1BD1F5
:102460007B681B686FF480625A617B6800221A6384
:102470007B68202283F83D207B68002283F83E2081
:102480007B681B6C43F004027B681A647B68002243
:1024900083F83C20012300E0002318460C37BD469A
:1024A0005DF8047B7047000080B586B000AF7860AF
:1024B0007B68002B01D1012367E27B681B6803F076
:1024C0000103002B75D0884B9B6803F00C03042B91
:1024D0000CD0854B9B6803F00C03082B12D1824B68
:1024E0005B6803F48003B3F5800F0BD17E4B1B6850
:1024F00003F40033002B5BD07B685B68002B57D163
:10250000012342E27B685B68B3F5803F06D1764BDE
:102510001B68754A43F4803313601DE07B685B6879
:10252000B3F5A02F0CD1704B1B686F4A43F4802386
:1025300013606D4B1B686C4A43F4803313600BE0EF
:10254000694B1B68684A23F480331360664B1B6831
:10255000654A23F4802313607B685B68002B13D0EB
:10256000FEF7F2FB386108E0FEF7EEFB02463B693E
:10257000D31A642B01D9032307E25B4B1B6803F4D6
:102580000033002BF0D014E0FEF7DEFB386108E0EA
:10259000FEF7DAFB02463B69D31A642B01D9032309
:1025A000F3E1514B1B6803F40033002BF0D100E042
:1025B00000BF7B681B6803F00203002B63D04A4B0B
:1025C0009B6803F00C03002B0BD0474B9B6803F078
:1025D0000C03082B1CD1444B5B6803F48003002BD5
:1025E00016D1414B1B6803F00203002B05D07B681A
:1025F000DB68012B01D00123C7E13B4B1B6823F0B3
:10260000F8027B681B69DB00374913430B603AE033
:102610007B68DB68002B20D0344B01221A60FEF768
:1026200093FB386108E0FEF78FFB02463B69D31A43
:10263000022B01D90323A8E12B4B1B6803F00203F3
:10264000002BF0D0284B1B6823F0F8027B681B6935
:10265000DB00254913430B6015E0244B00221A6070
:10266000FEF772FB386108E0FEF76EFB02463B693D
:10267000D31A022B01D9032387E11B4B1B6803F0FC
:102680000203002BF0D17B681B6803F00803002BCA
:1026900036D07B685B69002B16D0154B01221A607F
:1026A000FEF752FB386108E0FEF74EFB02463B693D
:1026B000D31A022B01D9032367E10B4B5B6F03F0A5
:1026C0000203002BF0D01BE0094B00221A60FEF73A
:1026D0003BFB38610EE0FEF737FB02463B69D31A3D
:1026E000022B07D9032350E1003802400000474283
:1026F000800E4742884B5B6F03F00203002BEAD148
:102700007B681B6803F00403002B00F09780002314
:10271000FB75814B1B6C03F08053002B0FD1002302
:10272000BB607D4B1B6C7C4A43F0805313647A4B37
:102730001B6C03F08053BB60BB680123FB75774BB8
:102740001B6803F48073002B18D1744B1B68734A09
:1027500043F480731360FEF7F7FA386108E0FEF780
:10276000F3FA02463B69D31A022B01D903230CE189
:102770006A4B1B6803F48073002BF0D07B689B6866
:10278000012B06D1644B1B6F634A43F001031367AF
:102790001CE07B689B68052B0CD15F4B1B6F5E4A6E
:1027A00043F0040313675C4B1B6F5B4A43F0010368
:1027B00013670BE0584B1B6F574A23F00103136755
:1027C000554B1B6F544A23F0040313677B689B68C7
:1027D000002B15D0FEF7B8FA38610AE0FEF7B4FA1C
:1027E00002463B69D31A41F28832934201D903234E
:1027F000CBE0494B1B6F03F00203002BEED014E03B
:10280000FEF7A2FA38610AE0FEF79EFA02463B693B
:10281000D31A41F28832934201D90323B5E03E4BEB
:102820001B6F03F00203002BEED1FB7D012B05D1C2
:10283000394B1B6C384A23F0805313647B689B69C7
:10284000002B00F0A180344B9B6803F00C03082B95
:102850005CD07B689B69022B41D1314B00221A600E
:10286000FEF772FA386108E0FEF76EFA02463B693D
:10287000D31A022B01D9032387E0274B1B6803F0EF
:102880000073002BF0D17B68DA697B681B6A1A43FE
:102890007B685B6A9B011A437B689B6A5B08013B10
:1028A0001B041A437B68DB6A1B061B4913434B60FE
:1028B0001B4B01221A60FEF747FA386108E0FEF769
:1028C00043FA02463B69D31A022B01D903235CE089
:1028D000114B1B6803F00073002BF0D054E0104B39
:1028E00000221A60FEF730FA386108E0FEF72CFA91
:1028F00002463B69D31A022B01D9032345E0064B5C
:102900001B6803F00073002BF0D13DE07B689B69EE
:10291000012B07D1012338E000380240007000404D
:10292000600047421B4B5B68FB607B689B69012B27
:1029300028D0FB6803F480027B68DB699A4221D1CE
:10294000FB6803F03F027B681B6A9A421AD1FA685F
:1029500047F6C07313407A68526A9201934211D1CC
:10296000FB6803F440327B689B6A5B08013B1B04F5
:102970009A4207D1FB6803F070627B68DB6A1B0632
:102980009A4201D0012300E0002318461837BD46C3
:1029900080BD00BF0038024080B584B000AF7860D1
:1029A00039607B68002B01D10123CCE0684B1B68A8
:1029B00003F007033A689A420CD9654B3A68D2B2E1
:1029C0001A70634B1B6803F007033A689A4201D000
:1029D0000123B8E07B681B6803F00203002B20D0C2
:1029E0007B681B6803F00403002B05D0594B9B68E0
:1029F000584A43F4E05393607B681B6803F0080374
:102A0000002B05D0534B9B68524A43F460439360BC
:102A1000504B9B6823F0F0027B689B684D49134341
:102A20008B607B681B6803F00103002B44D07B683C
:102A30005B68012B07D1474B1B6803F40033002B65
:102A400019D101237FE07B685B68022B03D07B6890
:102A50005B68032B07D13F4B1B6803F00073002B0F
:102A600009D101236FE03B4B1B6803F00203002BED
:102A700001D1012367E0374B9B6823F003027B6899
:102A80005B68344913438B60FEF75EF9F8600AE037
:102A9000FEF75AF90246FB68D31A41F28832934294
:102AA00001D903234FE02B4B9B6803F00C027B689A
:102AB0005B689B009A42EBD1254B1B6803F0070330
:102AC0003A689A420CD2224B3A68D2B21A70204B22
:102AD0001B6803F007033A689A4201D0012332E0F1
:102AE0007B681B6803F00403002B08D0194B9B681C
:102AF00023F4E0527B68DB68164913438B607B68E4
:102B00001B6803F00803002B09D0124B9B6823F4C9
:102B100060427B681B69DB000E4913438B6000F049
:102B200021F802460B4B9B681B0903F00F030A496F
:102B3000CB5C22FA03F3094A1360094B1B68184661
:102B4000FEF7BEF8002318461037BD4680BD00BF13
:102B5000003C024000380240605C00080000002099
:102B6000040000202DE9B04F90B000AF00237B633C
:102B70000023FB6300233B630023BB63584B9B682C
:102B800003F00C03082B0DD0082B00F2A080002BC3
:102B900002D0042B03D09AE0524BBB639AE0524B15
:102BA000BB6397E04E4B5B6803F03F037B634C4B8A
:102BB0005B6803F48003002B27D0494B5B689B09BB
:102BC00000223B627A623B6AC3F308000021464B55
:102BD00003FB01F2002300FB03F31344424AA0FB72
:102BE0000221F962BA62FA6A1344FB627B6B00222B
:102BF000BB61FA61D7E90623D7E90A01FDF740FB7B
:102C000002460B461346FB6353E0354B5B689B095A
:102C100000223B617A613B69C3F3080A4FF0000B65
:102C200052465B464FF000004FF00001590141EA67
:102C3000D261500102460B46B2EB0A0863EB0B0966
:102C40004FF000024FF000034FEA891343EA986304
:102C50004FEA8812B2EB080463EB09054FF000025B
:102C60004FF00003EB0043EA5473E20014461D46A4
:102C700014EB0A033B6045EB0B037B604FF0000253
:102C80004FF00003D7E9004529468B02214643EA6D
:102C9000915321468A02104619467B6B0022BB6085
:102CA000FA60D7E90223FDF7EBFA02460B4613461A
:102CB000FB630B4B5B681B0C03F0030301335B00EE
:102CC0003B63FA6B3B6BB2FBF3F3BB6302E0054B78
:102CD000BB6300BFBB6B18464037BD46BDE8B08F35
:102CE000003802400024F40040787D0180B400AF39
:102CF000034B1B681846BD465DF8047B704700BF58
:102D00000000002080B500AFFFF7F0FF0246054B42
:102D10009B689B0A03F007030349CB5C22FA03F389
:102D2000184680BD00380240705C000880B500AFD6
:102D3000FFF7DCFF0246054B9B685B0B03F00703C4
:102D40000349CB5C22FA03F3184680BD00380240E9
:102D5000705C000880B582B000AF78607B68002BA3
:102D600001D1012342E07B6893F84130DBB2002BB4
:102D700006D17B68002283F840207868FDF770FE5A
:102D80007B68242283F841207B681B68DA687B68B3
:102D90001B6822F40052DA60786800F009FA7B6858
:102DA0001B681A697B681B6822F490421A617B6871
:102DB0001B685A697B681B6822F02A025A617B688B
:102DC0001B68DA687B681B6842F40052DA607B6833
:102DD00000225A647B68202283F841207B682022ED
:102DE00083F842207B6800225A6300231846083784
:102DF000BD4680BD80B58AB002AFF860B9603B6067
:102E00001346FB8000237B61FB6893F84130DBB203
:102E1000202B75D1BB68002B02D0FB88002B01D181
:102E200001236EE0FB6800225A64FB68212283F8CC
:102E30004120FDF789FF7861FB68FA889A84FB6876
:102E4000FA88DA84FB689B68B3F5805F08D1FB6879
:102E50001B69002B04D10023FB61BB68BB6103E04D
:102E6000BB68FB610023BB612EE03B6800937B697C
:102E700000228021F86800F0DFF80346002B05D01F
:102E8000FB68202283F8412003233AE0FB69002BF2
:102E90000BD1BB691B881A46FB681B68C2F308028A
:102EA0005A60BB690233BB6107E0FB691A78FB68B3
:102EB0001B685A60FB690133FB61FB68DB8C9BB2CA
:102EC000013B9AB2FB68DA84FB68DB8C9BB2002B77
:102ED000CBD13B6800937B6900224021F86800F069
:102EE000ABF80346002B05D0FB68202283F8412075
:102EF000032306E0FB68202283F84120002300E042
:102F0000022318462037BD4680BD80B58AB002AF87
:102F1000F860B9603B601346FB8000237B61FB686F
:102F200093F84230DBB2202B40F08180BB68002B4D
:102F300002D0FB88002B01D1012379E0FB6800223D
:102F40005A64FB68222283F84220FB6800221A633D
:102F5000FDF7FAFE7861FB68FA889A85FB68FA88C3
:102F6000DA85FB689B68B3F5805F08D1FB681B6955
:102F7000002B04D10023FB61BB68BB6103E0BB688D
:102F8000FB610023BB6147E03B6800937B69002243
:102F90002021F86800F050F80346002B05D0FB68AC
:102FA000202283F84220032342E0FB69002B0CD14E
:102FB000FB681B685B689BB2C3F308039AB2BB69EA
:102FC0001A80BB690233BB611FE0FB689B68B3F5E5
:102FD000805F07D0FB689B68002B0AD1FB681B69E8
:102FE000002B06D1FB681B685B68DAB2FB691A70BC
:102FF00008E0FB681B685B68DBB203F07F03DAB2B2
:10300000FB691A70FB690133FB61FB68DB8D9BB2C6
:10301000013B9AB2FB68DA85FB68DB8D9BB2002B23
:10302000B2D1FB68202283F84220002300E0022373
:1030300018462037BD4680BD80B586B000AFF86029
:10304000B9603B601346FB713BE03B6AB3F1FF3F65
:1030500037D0FDF779FE02463B68D31A3A6A9A42A6
:1030600002D33B6A002B01D103233AE0FB681B68C3
:10307000DB6803F00403002B23D0BB68802B20D037
:10308000BB68402B1DD0FB681B681B6803F008035E
:10309000082B16D100237B61FB681B681B687B61D2
:1030A000FB681B685B687B617B69F86800F01DF852
:1030B000FB6808225A64FB68002283F84020012341
:1030C0000FE0FB681B681A68BB681340BA689A4235
:1030D0000CBF01230023DBB21A46FB799A42B4D01D
:1030E000002318461837BD4680BD80B495B000AFA8
:1030F00078607B681B680C337B637B6B53E8003F15
:103100003B633B6B23F49073FB647B681B680C335D
:10311000FA6C3A64FB63F96B3A6C41E80023BB63D9
:10312000BB6B002BE5D17B681B6814333B623B6AA9
:1031300053E8003FFB61FB6923F00103BB647B683C
:103140001B681433BA6CFA62BB62B96AFA6A41E866
:1031500000237B627B6A002BE5D17B681B6B012B14
:1031600019D17B681B680C33FB60FB6853E8003F98
:10317000BB60BB6823F010037B647B681B680C3367
:103180007A6CBA617B617969BA6941E800233B6175
:103190003B69002BE5D17B68202283F842207B68C5
:1031A00000221A6300BF5437BD465DF8047B7047A8
:1031B0002DE9B04FC0B000AFC7F8F400D7F8F43035
:1031C0001B681B6923F44050D7F8F430D968D7F84E
:1031D000F4301A6840EA01031361D7F8F4309A68B2
:1031E000D7F8F4301B691A43D7F8F4305B691A43F7
:1031F000D7F8F430DB691343C7F8F830D7F8F43068
:103200001B68DB6823F4164121F00C01D7F8F43079
:103210001A68D7F8F8300B43D360D7F8F4301B683E
:103220005B6923F44070D7F8F4309969D7F8F4302B
:103230001A6840EA01035361D7F8F4301A688F4BDB
:103240009A4205D0D7F8F4301A688D4B9A4204D1CF
:10325000FFF76CFDC7F8FC0003E0FFF753FDC7F86C
:10326000FC00D7F8F430DB69B3F5004F40F00C8177
:10327000D7F8FC300022C7F8E830C7F8EC20D7E9CF
:103280003A4522462B469118B9655B41FB65D7E963
:103290001623214612EB0108294643EB01094FF0A2
:1032A00000024FF000034FEAC90343EA58734FEAA4
:1032B000C80290469946234618EB0303C7F8E0304E
:1032C0002B4649EB0303C7F8E430D7F8F4305B68CA
:1032D0000022C7F8D830C7F8DC20D7E936120B46F1
:1032E000DB183B65134642EB03037B65D7E91423E8
:1032F000D7E93801FCF7C4FF02460B46614BA3FB3C
:1033000002235B091C01D7F8FC300022C7F8D0303B
:10331000C7F8D420D7E9348942464B469118B9649E
:103320005B41FB64D7E91223414612EB010A49468F
:1033300043EB010B4FF000024FF000034FEACB03C9
:1033400043EA5A734FEACA0292469B4643461AEB37
:103350000303C7F8C8304B464BEB0303C7F8CC3028
:10336000D7F8F4305B680022C7F8C030C7F8C42033
:10337000D7E930120B46DB183B64134642EB0303DC
:103380007B64D7E91023D7E93201FCF779FF0246C5
:103390000B4611463B4BA3FB01235B09642202FB56
:1033A00003F3CB1ADB0003F13202364BA3FB0223FB
:1033B0005B095B0003F4F8731C44D7F8FC3000226F
:1033C000C7F8B830C7F8BC20D7E92E8942464B462B
:1033D0009118B9635B41FB63D7E90E23414651184D
:1033E000396349464B417B634FF000024FF00003C5
:1033F000D7E90CAB5946CB00514643EA51735146CD
:10340000CA0010461946034642469B18C7F8B0301A
:103410004B460A4642EB0303C7F8B430D7F8F43002
:103420005B680022C7F8A830C7F8AC20D7E92A1299
:103430000B46DB18BB62134642EB0303FB62D7E982
:103440000A23D7E92C01FCF71BFF02460B460D4B64
:10345000A3FB02135B09642101FB03F3D31ADB0016
:103460003233084AA2FB03235B0903F00702D7F8B3
:10347000F4301B6822449A6006E100BF001001404E
:10348000001401401F85EB51D7F8FC300022C7F82B
:10349000A030C7F8A420D7E9288942464B469118A6
:1034A00039625B417B62D7E908234146541849469B
:1034B00043EB01054FF000024FF00003EB0043EA3D
:1034C0005473E20014461D464346E318C7F898308B
:1034D0004B4645EB0303C7F89C30D7F8F4305B68E4
:1034E0000022C7F89030C7F894204FF000024FF048
:1034F0000003D7E9244529468B00214643EA91730E
:1035000021468A00D7E92601FCF7BAFE02460B469F
:10351000604BA3FB02235B091C01D7F8FC3000229F
:10352000C7F88830C7F88C20D7E9228942464B4635
:103530009118B9615B41FB61D7E9062341465118F7
:10354000396149464B417B614FF000024FF0000367
:10355000D7E904AB5946CB00514643EA5173514673
:10356000CA0010461946034642469B18C7F88030E9
:103570004B460A4642EB0303C7F88430D7F8F430D1
:103580005B680022BB67FA674FF000024FF0000350
:10359000D7E91E8949468B00414643EA917341466B
:1035A0008A00D7E92001FCF76BFE02460B46114664
:1035B000384BA3FB01235B09642202FB03F3CB1A04
:1035C0001B013233334AA2FB03235B0903F0F003F0
:1035D0001C44D7F8FC3000223B677A67D7E91C8986
:1035E00042464B469118B9605B41FB60D7E9022324
:1035F00041465118396049464B417B604FF000020B
:103600004FF00003D7E900AB5946CB00514643EADF
:1036100051735146CA0010461946034642469B184C
:10362000BB664B460A4642EB0303FB66D7F8F43011
:103630005B6800223B667A664FF000024FF00003A1
:10364000D7E9188949468B00414643EA91734146C0
:103650008A00D7E91A01FCF713FE02460B460D4B10
:10366000A3FB02135B09642101FB03F3D31A1B01C3
:103670003233084AA2FB03235B0903F00F02D7F899
:10368000F4301B6822449A6000BF07F58077BD467E
:10369000BDE8B08F1F85EB5180B582B000AF786078
:1036A000396000F0CFFC786800F06CF84FF47A7065
:1036B000FDF756FB386800F061FB00F023FE00F0D8
:1036C0002FFE00BF0837BD4680BD80B582B000AF79
:1036D00000F0BAF800F084FB03E0FB79184600F034
:1036E0000DF8FB1D184600F0FFFC0346002BF4D13B
:1036F00000F084FE00BF0837BD4680BD80B582B0B3
:1037000000AF0346FB71FB79013B052B34D801A2C6
:1037100052F823F02D3700083B37000849370008DE
:10372000653700086F3700085737000800F092F837
:1037300000F054FE00F008FE1FE000F0B7F800F0C3
:103740004DFE00F001FE18E000F0E8F800F046FE43
:1037500000F0FAFD11E000F013F900F03FFE00F078
:10376000F3FD0AE000F03EF900F0EEFD05E000F0A8
:1037700019F900F0E9FD00E000BF00BF0837BD46C1
:1037800080BD00BF80B582B000AF78607968244802
:1037900001F080F9002000F0DBFA012000F0C2FA0D
:1037A000002208211F48FEF79FF94FF4FA60FDF749
:1037B000D7FA1D4B1B781946194801F0ABF91B4885
:1037C00000F046FA0346002B02D1184B01221A7072
:1037D000174B01221A70174B00221A700120FDF7B7
:1037E000BFFA002000F09EFA002000F057F900F028
:1037F000A7F903461A46104B1A700F4B1A780F4B55
:103800001A70FDF7A1FA03460D4A1360FDF79CFA02
:1038100003460C4A136000BF0837BD4680BD00BF99
:10382000C001002000040240090000200D0000201B
:103830000C000020D00100200B0000200A00002016
:10384000D4010020D801002080B500AF00F08EF92F
:1038500000BF80BD80B500AF104B1B78002B1BD183
:103860000F4B1B78002B0BD10E4801F06BF9FDF7C5
:103870006BFA03460C4A1360094B01221A700CE0E4
:10388000084801F06DF9FDF75FFA0346064A136038
:10389000034B00221A7000E000BF80BDD101002060
:1038A000D0010020C0010020D801002080B500AF69
:1038B000144B1B78002B23D1134B1B78002B02D108
:1038C000114B01221A70114B1B78012B04D90F4B9D
:1038D0001B78013BDBB201E00B4B1B780B4A1370EA
:1038E0000B4B1B78002B02D1094B01221A7009489F
:1038F00001F002F9FDF728FA0346074A136000E0D9
:1039000000BF80BDD10100200D0000200C00002070
:10391000D0010020C0010020D801002080B500AFF8
:10392000114B1B78002B1DD1104B1A78104B1B78B4
:103930009A4204D20D4B1B780133DBB200E0012325
:103940000A4A13700B4B1B78002B02D1094B012242
:103950001A70094801F0C2F8FDF7F6F90346074A64
:10396000136000E000BF80BDD10100200C000020EA
:103970000D000020D0010020C0010020D80100204F
:1039800080B500AF064B1B78002B03D1012000F05F
:1039900085F802E0002000F081F800BF80BD00BF84
:1039A000D101002080B500AF0B4B1B78002B10D14C
:1039B0000A4B1B781D2B0DD8084B1B780133DAB24C
:1039C000064B1A70054B1B781946054801F0A2F802
:1039D00000E000BF80BD00BFD10100200900002031
:1039E000C001002080B500AF0B4B1B78002B10D11D
:1039F0000A4B1B78002B0DD0084B1B78013BDAB229
:103A0000064B1A70054B1B781946054801F082F8E1
:103A100000E000BF80BD00BFD101002009000020F0
:103A2000C001002080B400AF034B1B781846BD4690
:103A30005DF8047B704700BFD001002080B400AF68
:103A4000034B1B781846BD465DF8047B704700BFEA
:103A50000900002080B400AF034B1B781846BD4618
:103A60005DF8047B704700BF0C00002080B400AFFD
:103A7000034B1B781846BD465DF8047B704700BFBA
:103A80000D00002080B400AF034B1B781846BD46E4
:103A90005DF8047B704700BFD101002080B582B083
:103AA00000AF0346FB71214B1B78FA799A4239D05B
:103AB000FB79012B0ED11E4B1B78012B0AD11D481F
:103AC00001F04EF81A4B00221A70FDF73DF903463B
:103AD000194A1360012000F025F9FB79012B06D16A
:103AE000012000F035F94FF49670FDF739F9FB79B4
:103AF000002B14BF01230023DBB21A4608210F4814
:103B0000FDF7F2FF0120FDF72BF9FB79002B02D125
:103B1000002000F01DF9002000F004F9034AFB79B1
:103B2000137000E000BF0837BD4680BDD101002002
:103B3000D0010020C0010020D80100200004024074
:103B400080B582B000AF20210748FDF7B5FF0346DE
:103B5000FB71FB79012B01D1012300E00023184602
:103B60000837BD4680BD00BF0004024080B582B06A
:103B700000AF2E4B1B78002B4FD1FDF7E5F8786096
:103B80002B4B1B687A68D31AB3F5FA7F47D3FFF73C
:103B9000D7FF0346FB70274B1B78FA789A4206D072
:103BA000244AFB781370244A7B6813603AE0224B66
:103BB0001B687A68D31A132B33D9204B1A781D4B04
:103BC0001B789A422ED01D4B1B78BB70194B1A786C
:103BD0001A4B1A70BB78002B24D1184B1B78012B81
:103BE00020D1174B1B78002B1CD0164800F076FF15
:103BF000134B01221A70144B1A78144B1B789A42FB
:103C000004D2114B1B780133DBB200E001230E4AD2
:103C10001370074A7B68136004E000BF02E000BF36
:103C200000E000BF0837BD4680BD00BFD1010020C5
:103C3000D80100200B000020D40100200A00002041
:103C4000D0010020C00100200C0000200D00002049
:103C500080B584B000AF78600023BB8100237B81F6
:103C60000023FB817B68002B01D1002353E07B689C
:103C700001221A702A4800F081FF4FF49670FDF778
:103C80006FF807F10C034FF496721946244800F0C0
:103C900085FF0346002B01D100233CE0BB89002BAC
:103CA00002D0BB89FF2B01D9002334E00123FB8123
:103CB00026E01B4800F012FFFA20FDF751F807F14B
:103CC0000A034FF496721946154800F067FF034641
:103CD000002B01D100231EE07A89BB899A420CD1C6
:103CE000FB89DAB27B681A700D4800F047FF4FF489
:103CF0009670FDF735F801230DE0FB890133FB8158
:103D0000FB89FF2BD5D9064800F038FF4FF4967099
:103D1000FDF726F8002318461037BD4680BD00BFCA
:103D2000C001002080B582B000AF0346FB71FB7973
:103D3000002B14BF01230023DBB21A4610210348D5
:103D4000FDF7D2FE00BF0837BD4680BD000402402B
:103D500080B582B000AF0346FB71FB79002B14BF26
:103D600001230023DBB21A4602210348FDF7BCFE03
:103D700000BF0837BD4680BD0004024080B584B056
:103D800000AF7860124A7B681360102000F08CF856
:103D90000346FB81FB89184600F0CCF8F0EE407A30
:103DA0000C4BC3ED007A0B4BD3ED007AB0EE670AF3
:103DB00000F0ECF803461A46074B1A70FCF7C4FFF4
:103DC0000346064A136000BF1037BD4680BD00BFE2
:103DD000DC010020E0010020E4010020E8010020D7
:103DE00080B584B000AFFCF7AFFFF860224B1B68D2
:103DF000FA68D31AB3F5FA6F39D31F4AFB68136018
:103E0000102000F051F803467B817B89184600F0B2
:103E100091F887ED010A194BD3ED007A9FED187ADE
:103E2000F4EEC77AF1EE10FA03D5144A7B681360FA
:103E300011E0124BD3ED007A9FED127A27EE877ACC
:103E4000D7ED017ADFED106A67EEA67A77EE277A72
:103E50000A4BC3ED007A094BD3ED007AB0EE670A46
:103E600000F094F803461A46084B1A7000E000BFB1
:103E70001037BD4680BD00BFE8010020E0010020F2
:103E8000CDCCCC3D9A99593F9A99193EE401002036
:103E900080B400AF034B1B781846BD465DF8047B29
:103EA000704700BFE401002080B584B000AF034636
:103EB000FB710023FB601E4B1B68002B02D0FB79BB
:103EC000002B01D100232FE00023FB7223E0184BCD
:103ED0001B681846FCF7ACFF0346002B17D1144BA8
:103EE0001B680A211846FDF78AF80346002B08D103
:103EF0000F4B1B681846FDF70DF90246FB6813448B
:103F0000FB600B4B1B681846FDF746F800E000BF4E
:103F1000FB7A0133FB72FA7AFB799A42D7D3FB79A9
:103F2000FA68B2FBF3F39BB218461037BD4680BD6A
:103F3000DC01002080B485B000AF0346FB80FB8825
:103F400007EE903AF8EE677A9FED0D7A27EE877AC2
:103F5000DFED0C6AC7EE267AC7ED037AD7ED037A58
:103F60009FED097A67EE877AC7ED027ABB6807EEA4
:103F7000903AB0EE670A1437BD465DF8047B70478F
:103F80003333534000F07F45CDCC8C4080B485B0B6
:103F900000AF87ED010AD7ED017AB2EE027AF4EEB6
:103FA000C77AF1EE10FA01D800233CE0D7ED017A90
:103FB0009FED207AF4EEC77AF1EE10FA01DB64236C
:103FC00031E0D7ED017AB2EE027A77EEC77A9FED53
:103FD0001A7A27EE877ADFED196AC7EE267AC7EDDF
:103FE000037AD7ED037AF5EEC07AF1EE10FA03D535
:103FF0004FF00003FB600AE0D7ED037A9FED0E7AE5
:10400000F4EEC77AF1EE10FA01DD0D4BFB60D7ED4F
:10401000037AB6EE007A77EE877AFCEEE77AC7EDA0
:10402000007A3B78DBB218461437BD465DF8047B56
:10403000704700BF9A9949410000C84268666640CF
:104040000000C84280B483B000AF72B600BF204BFE
:1040500000221A701F4B00221A701F4B00221A8078
:1040600000237B6007E01D4A7B68134400221A701E
:104070007B6801337B607B680F2BF4D900237B6066
:1040800007E0174A7B68002142F823107B68013360
:104090007B607B680F2BF4D900237B600CE0114917
:1040A0007A6813465B0013449B000B4408330022DC
:1040B0001A607B6801337B607B68052BEFD962B6A1
:1040C00000BF00BF0C37BD465DF8047B704700BFE2
:1040D000FC010020FD010020FE010020EC01002079
:1040E000000200201000002080B485B000AF78608E
:1040F0000023FB737B68002B01D1002321E072B603
:1041000000BF134B1B78DAB2124B1B78DBB29A421A
:1041100014D00F4B1B78DBB21A460F4B9B5CDAB204
:104120007B681A700A4B1B78DBB20133DBB203F0F9
:104130000F03DAB2064B1A700123FB7362B600BF9D
:10414000FB7B18461437BD465DF8047B704700BF03
:10415000FD010020FC010020EC01002080B584B0AE
:1041600000AF0346FB80FCF7EFFDF8603A4AFB889E
:104170001380FB88184600F075F8B860BB68002B08
:1041800064DBFB88B3F5806F35D0B3F5806F38DC26
:10419000B3F5007F29D0B3F5007F32DCB3F5807F23
:1041A0001DD0B3F5807F2CDC202B12D0202B28DCF7
:1041B000082B02D0102B06D023E0284BDB680133FC
:1041C000264AD3601EE0254B1B690133234A136145
:1041D00018E0224B5B690133204A536112E01F4B08
:1041E0001B6A01331D4A13620CE01C4B5B6A0133EE
:1041F0001A4A536206E0194B9B6A0133174A9362CD
:1042000000E000BFBA68164913465B0013449B00E8
:104210000B4408331B68FA68D31AC72B18D9BA683D
:104220000F4913465B0013449B000B440833FA68A4
:104230001A60BA680A4913465B0013449B000B449A
:1042400006331B78184600F033F802E000BF00E0A8
:1042500000BF1037BD4680BDFE01002000020020D7
:104260001000002080B485B000AF0346FB8000231F
:10427000FB6010E00D49FA6813465B0013449B0095
:104280000B4404331B88FA889A4201D1FB6807E08B
:10429000FB680133FB60FB68052BEBD94FF0FF3364
:1042A00018461437BD465DF8047B704710000020A7
:1042B00080B485B000AF0346FB710F4B1B78DBB2B7
:1042C0000133DBB203F00F03FB730C4B1B78DBB243
:1042D000FA7B9A4209D0084B1B78DBB21946084A90
:1042E000FB795354044AFB7B137000BF1437BD465F
:1042F0005DF8047B704700BFFC010020FD01002039
:10430000EC01002080B500AF00F0A2FC00F066F8E0
:10431000024B00221A7000BF80BD00BF480200207F
:1043200080B500AF00F00EF900F0B2F900F0E2F94C
:1043300000F00CFA00F036FA024B01221A7000BFAE
:1043400080BD00BF4802002080B582B000AFFFF7FB
:1043500099FB0346FB71FFF765FB0346BB71FB79D5
:10436000012B04D100F03EF900F0F0F926E0184BE3
:104370001B78002B02D100F0E5F819E0154B1B78F3
:10438000002B02D000F0DEF812E0134B1B78002B5C
:1043900005D1BB79002B02D000F008F908E00E4BE4
:1043A0001B78002B04D0BB79002B01D100F0E2F880
:1043B00000F06EF900F09EF900F0C8F900F0F2F993
:1043C000034B01221A7000BF0837BD4680BD00BFF5
:1043D00048020020490200204A02002080B500AFB8
:1043E000044B00221A70FCF7AFFC0346024A13602C
:1043F00000BF80BD400200204402002080B584B090
:1044000000AFFFF73FFB0346FB73FFF70BFB0346D1
:10441000BB73FFF71FFB03467B73FFF727FB0346C6
:104420003B73FFF70BFB0346FB72FFF731FD0346BF
:10443000BB723B4B1B78002B09D03A4B1B78FA7BA5
:104440009A4204D1384B1B78BA7B9A4202D0FFF7CC
:104450007BFF62E0FB7B002B26D1344B1B787A7B01
:104460009A4204D1324B1B783A7B9A4207D000F033
:104470000FF92E4A7B7B13702D4A3B7B13702D4B1B
:104480001B78FA7A9A4204D000F034F9294AFB7A70
:104490001370294B1B78BA7A9A420FD000F056F964
:1044A000254ABB7A137009E0234B1B78BA7A9A42EB
:1044B00004D000F04BF9204ABB7A1370FB7B002B31
:1044C00028D1BB7B002B25D0FCF73EFC78601B4B32
:1044D0001B687A68D31AB3F5967F1DD3174A7B6899
:1044E0001360174B1B78184600F094F800F0D0F8D2
:1044F00000F000F9124B1B780133DAB2104B1A703E
:104500000F4B1B78092B02D90D4B00221A7000F0BB
:1045100049F902E000BF00E000BF1037BD4680BD92
:1045200048020020490200204A02002058000020D2
:10453000590000204B0200205A00002044020020B5
:104540004002002080B582B002AF002000F0EAFBFC
:1045500001230193402300938023054A002100207A
:1045600000F008FE00F0F6FB00BFBD4680BD00BFB6
:10457000746A000880B582B002AF002000F0D2FB60
:1045800001230193402300938023074A0021002048
:1045900000F0F0FD1C231C222A21462000F002FC22
:1045A00000BFBD4680BD00BF746A000880B582B000
:1045B00002AF002000F0B6FB0123019340230093DB
:1045C0008023074A0021002000F0D4FD1C231C2278
:1045D0002A21462000F0E6FB00BFBD4680BD00BF9B
:1045E0007466000880B582B002AF002000F09AFB2C
:1045F00001230193402300938023054A00210020DA
:1046000000F0B8FD00F0A6FB00BFBD4680BD00BFB6
:1046100074620008B0B590B002AF0346FB711A4B4C
:1046200007F10C041D460FCD0FC40FCD0FC495E844
:10463000030084E80300FA79144BA3FB0213D908A2
:104640000B469B000B445B00D31ADBB29B00383354
:104650003B4453F82C3C7B63002000F063FB0123B8
:1046600001934023009380237A6B0021002000F007
:1046700081FD12233E221221362000F093FB00BF61
:104680003837BD46B0BD00BF1C5C0008CDCCCCCCDB
:1046900090B587B002AFFFF7DDF903461C46FFF780
:1046A000E5F90346384600932346104A102100F0EE
:1046B000EDFD002300930F2385220621362000F014
:1046C0000BFD0621362000F0EFFC094B3846012295
:1046D00000920ECB00F0C2FC0A23502206213620A5
:1046E00000F060FB00BF1437BD4690BD445C00087D
:1046F0006862000880B584B002AFFFF79FF90346F7
:104700003846104A052100F0C1FD00230093222302
:1047100022221B21172000F0DFFC1B21172000F0B4
:10472000C3FC094B3846012200920ECB00F096FCE8
:1047300008230C221B21172000F034FB00BF083790
:10474000BD4680BD545C00086862000880B586B034
:1047500002AFFFF79DFB0346381D104A0C2100F005
:1047600095FD00230093382322223121092000F0F7
:10477000B3FC3121092000F097FC094B381D0122C0
:1047800000920ECB00F06AFC08231A223121092086
:1047900000F008FB00BF1037BD4680BD585C000824
:1047A0006862000880B500AFFFF76CF903461A464F
:1047B000104B1A70FFF736F903461A460E4B1A7063
:1047C000FFF748F903461A460C4B1A70FFF74EF9EB
:1047D00003461A460A4B1A70FFF730F903461A4689
:1047E000084B1A70FFF754FB03461A46064B1A7023
:1047F00000BF80BD490200204A020020580000206E
:10480000590000204B0200205A00002080B582B0E1
:1048100000AF78607B6818687B68191D4FF47A7365
:104820000A22FEF7E7FA00BF0837BD4680BD80B513
:1048300082B000AF0346FB80FB881846FCF790FA75
:1048400000BF0837BD4680BD80B485B000AF78603A
:104850000023FB810123BB600AE0BB687A68134434
:104860001B781A46FB891344FB81BB680133BB608C
:10487000BB68062BF1DDFB895B429BB218461437FF
:10488000BD465DF8047B704780B483B000AF7860AC
:104890000B467B807B881B0A9BB2DAB27B681A705E
:1048A0007B6801337A88D2B21A7000BF0C37BD46DC
:1048B0005DF8047B704780B584B000AF78607B689A
:1048C00004331846FFF7C0FF0346FB817B680433BF
:1048D0000733FA8911461846FFF7D6FF00BF103795
:1048E000BD4680BD80B582B000AF786008461146F5
:1048F0001A460346FB700B46BB7013467B70642060
:10490000FFF795FF7B68FA78DA717B68BA781A72DC
:104910007B687A785A727B683A7C9A727868FFF77B
:10492000CAFF7868FFF772FF00BF0837BD4680BD39
:1049300080B586B002AFF860084611461A460346B5
:10494000FB720B463B811346FB803B89DAB2FB8846
:10495000DBB2F97A009313460022F868FFF7C2FF32
:1049600000BF1037BD4680BD80B584B000AF786011
:1049700000BF7B68186807F10F0105230122FEF7CD
:10498000C4FA0346002BF4D000BF00BF1037BD4669
:1049900080BD80B586B000AFF860B9607A60FCF782
:1049A000D3F978610023FB7425E0FB68186807F1F0
:1049B00013010A230122FEF7A8FA0346002B17D1A0
:1049C000FB7C7E2B16D1FA7CBB681A70FB681868DA
:1049D000BB68591C7B680922FEF797FA0346002B37
:1049E00009D1BB6809331B78EF2B04D101230BE0FD
:1049F00000BF00E000BFFCF7A7F902467B69D31AAD
:104A00007A689A42D1D8002318461837BD4680BD2F
:104A100080B58AB000AFF8607A603B600B46FB72ED
:104A2000FCF792F9786226E0FCF78EF902467B6A81
:104A30009B1A3A6813443B6207F114033A6A194619
:104A4000F868FFF7A6FF0346002B1DD0FB7DFA7A1E
:104A50009A4200D00FE07B68002B0AD07B7E1BB20D
:104A60001B021AB2BB7E1BB213431BB29AB27B6805
:104A70001A8001230AE0FCF767F902467B6AD31A21
:104A80003A689A42D0D800E000BF00231846283781
:104A9000BD4680BD80B485B000AF7860396000232A
:104AA000FB600CE00C4AFB68134419787A68FB68D9
:104AB000134404330A461A70FB680133FB60FB6839
:104AC000092BEFDD7B683A681A6000BF1437BD46DA
:104AD0005DF8047B704700BF5C00002080B582B0A9
:104AE00000AF78600023002201217868FFF720FFE3
:104AF00000BF0837BD4680BD80B582B000AF78608A
:104B00000023002202217868FFF712FF00BF083758
:104B1000BD4680BD80B584B000AF78600B467B8019
:104B20007B881B0A9BB2FB737B88BB73FB7B9AB2AF
:104B3000BB7B9BB206217868FFF7FAFE00BF1037F7
:104B4000BD4680BD80B582B000AF786000230022F2
:104B50000D217868FFF7ECFE00BF0837BD4680BD29
:104B600080B582B000AF7860002300220E21786803
:104B7000FFF7DEFE00BF0837BD4680BD80B584B0BC
:104B800002AF786002230093002300220921786895
:104B9000FFF7A8FE00BF0837BD4680BD80B586B0D0
:104BA00002AFF860B9607A60BB68002B01D10023C6
:104BB00011E0F868FFF7D8FE0023009300230022DD
:104BC0004B21F868FFF78EFE7B68BA684B21F868C6
:104BD000FFF71EFF034618461037BD4680BD80B460
:104BE00000AF00BFBD465DF8047B704780B586B05E
:104BF00004AF0346FB714FF0FF330293012301938F
:104C0000FB1D00930123002278210348FDF7E2F801
:104C100000BF0837BD4680BD1C01002080B586B0AE
:104C200004AF786039603B689BB24FF0FF3202926C
:104C300001937B6800930123402278210348FDF70C
:104C4000C9F800BF0837BD4680BD00BF1C01002069
:104C500080B500AFFFF7C3FF6420FCF781F80020A8
:104C600000F0F6FA2020FFF7C1FF0020FFF7BEFF9B
:104C7000B020FFF7BBFFC820FFF7B8FF0020FFF709
:104C8000B5FF1020FFF7B2FF4020FFF7AFFFFF2076
:104C900000F0CBFAA120FFF7A9FFA620FFF7A6FF9F
:104CA000A820FFF7A3FF3F20FFF7A0FFA420FFF7F6
:104CB0009DFFD320FFF79AFF0020FFF797FFD52035
:104CC000FFF794FFF020FFF791FFD920FFF78EFF49
:104CD0002220FFF78BFFDA20FFF788FF1220FFF773
:104CE00085FFDB20FFF782FF2020FFF77FFF8D206D
:104CF000FFF77CFF1420FFF779FF012000F0A8FAEE
:104D0000002000F00FF800F025F8054B00221A8073
:104D1000034B00225A80024B01221A7100BF80BD52
:104D20004C06002080B582B000AF0346FB71FB79D2
:104D3000002B01D1002300E0FF234FF480621946CD
:104D4000034800F0D9FA00BF0837BD4680BD00BF58
:104D50004C02002080B582B000AF0023FB7116E04A
:104D6000FB79503BDBB21846FFF740FF0220FFF70C
:104D70003DFF1020FFF73AFFFB79DB01084A13449F
:104D800080211846FFF74AFFFB790133FB71FB795D
:104D9000072BE5D900BF00BF0837BD4680BD00BF67
:104DA0004C02002090B585B000AF0446084611467D
:104DB0001A462346FB710346BB710B467B711346B3
:104DC0003B7197F90730002B5ADBBB793F2B57D843
:104DD000FA797B791344802B06DDFB79C3F1FF233D
:104DE00003F57F0380337B71BA793B791344402B01
:104DF00003DDBB79C3F140033B717B79002B41D0CC
:104E00003B79002B3ED0BB79DB08BB73BA793B7989
:104E10001344013B002B00DA0733DB107B730223C2
:104E20003B73BB7BFB7326E0FB7B503BDBB218463E
:104E3000FFF7DCFEFA793B7B1344FB72FB7A03F04D
:104E40000F03DBB21846FFF7D1FEFB7A1B09DBB27A
:104E50001033DBB21846FFF7C9FEFB7BDA01FB79A2
:104E600013440A4A13447A7911461846FFF7D6FECE
:104E7000FB7B0133FB73FA7B7B7B9A42D4D902E044
:104E800000BF00E000BF1437BD4690BD4C020020BB
:104E900080B483B000AF0346FB710B46BB71134671
:104EA0007B7197F90730002B3DDBBB793F2B3AD85C
:104EB0007B79012B1AD1FA79BB79DB08D8B203468A
:104EC000DB0113441B4AD35C5AB2BB7903F00703DE
:104ED000012101FA03F35BB2134359B2FA79034695
:104EE000DB011344C9B2134AD1541DE0FA79BB79EE
:104EF000DB08D8B20346DB0113440E4AD35C5AB236
:104F0000BB7903F00703012101FA03F35BB2DB4332
:104F10005BB2134059B2FA790346DB011344C9B2BC
:104F2000044AD15400E000BF0C37BD465DF8047B55
:104F3000704700BF4C02002090B589B000AF044616
:104F4000384680E80E002346FB73FB7B1F2B02D9FB
:104F5000FB7B7E2B01D9002379E0BB68002B05D0B9
:104F6000BA68FB7B203B13441B7800E03B78FB7561
:104F7000394B1B881A46FB7D1344802B06DC364BCD
:104F80005B881A467B781344402B01DD00235EE0EA
:104F90000023FB614DE07A68FB7B203B797801FBC5
:104FA00003F31946FB690B445B0013441B883B6108
:104FB0000023BB6136E03A69BB6902FA03F303F4EC
:104FC0000043002B13D0244B1B88DAB2BB69DBB241
:104FD0001344D8B2204B5B88DAB2FB69DBB21344CE
:104FE000DBB297F830201946FFF752FF17E01A4B53
:104FF0001B88DAB2BB69DBB21344D8B2164B5B88AC
:10500000DAB2FB69DBB21344D9B297F83030002B27
:105010000CBF01230023DBB21A46FFF739FFBB693F
:105020000133BB61FB7DBA699A42C4D3FB6901338A
:10503000FB617B781A46FB699342ACD3064B1A8816
:10504000FB7D9BB213449AB2034B1A80FB7B18463C
:105050002437BD4690BD00BF4C06002080B586B009
:1050600002AFF860384680E80E0013E0FB6818785D
:105070003B7E00933B460ECBFFF75EFF03461A468E
:10508000FB681B789A4202D0FB681B7808E0FB683B
:105090000133FB60FB681B78002BE7D1FB681B78B2
:1050A00018461037BD4680BD80B483B000AF0346BC
:1050B0000A46FB711346BB71FB799AB2054B1A8005
:1050C000BB799AB2034B5A8000BF0C37BD465DF8DE
:1050D000047B70474C06002090B585B000AF0446B5
:1050E000084611461A462346FB710346BB710B4620
:1050F0007B7113463B71FA797B79934228BF134643
:105100007B737A79FB79934238BF13463B73BA7944
:105110003B79934228BF1346FB723A79BB7993429D
:1051200038BF1346BB72FB7AFB7317E07B7BBB7304
:1051300009E097F82020F97BBB7B1846FFF7A8FE13
:10514000BB7B0133BB73BA7B3B7B9A4203D897F995
:105150000E30002BEDDAFB7B0133FB73FA7BBB7A5D
:105160009A4203D8FB7B3F2BE0D900BF00BF143726
:10517000BD4690BD80B584B000AF3A601A46034684
:10518000FB710B46BB7113467B717B790733002B98
:1051900000DA0733DB107B810023FB7397F90730BC
:1051A000002B3EDBBB793F2B3BD80023BB7333E0A6
:1051B00000237B7326E07B7B03F00703002B03D0E7
:1051C000FB7B5B00FB730DE0BB7BB7F90A2002FBA6
:1051D00003F37A7BD208D2B213441A463B681344D5
:1051E0001B78FB7397F90F30002B08DAFA797B7B79
:1051F0001344DBB23A7FB9791846FFF749FE7B7B4F
:1052000001337B737A7B7B799A42D4D3BB7B0133A6
:10521000BB73BB790133BB71BA7B3B7E9A42C7D368
:1052200000E000BF1037BD4680BD80B584B000AF40
:105230000346FB718123FB73FB7B1846FFF7D6FC0B
:10524000FB791846FFF7D2FC00BF1037BD4680BD82
:1052500080B584B000AF0346FB71FB79002B05D00D
:10526000AF23FB73084B01225A7104E0AE23FB739A
:10527000054B00225A71FB7B1846FFF7B7FC00BFB5
:105280001037BD4680BD00BF4C0600200CB430B5C1
:10529000184B0C1E1D689DB008DA8B232B604FF055
:1052A000FF301DB0BDE8304002B070474FF40273CC
:1052B000ADF814304FF000031B9314BF04F1FF331B
:1052C0002346049307934FF6FF7302900690ADF8C0
:1052D0001630209A21AB02A92846019300F0A6F9C6
:1052E000431CBCBF8B232B60002CDAD0029B002216
:1052F0001A70D6E76800002002440346934200D1AA
:10530000704703F8011BF9E7014B1868704700BFAD
:105310006800002070B50D4B0D4D5B1B9C100026E6
:10532000A64209D100F06EFC0A4D0B4B5B1B9C1092
:105330000026A64205D170BD55F8043B98470136BA
:10534000EEE755F8043B98470136F2E7B0960008BF
:10535000B0960008B0960008B496000870477047F1
:105360000A44914200F1FF3300D1704710B511F8A3
:10537000014B03F8014F9142F9D110BD38B50546F4
:10538000002941D051F8043C0C1F002BB8BFE41891
:1053900000F0E0F81D4A136833B9636014602846D2
:1053A000BDE8384000F0DCB8A34208D920682118D5
:1053B0008B4201BF19685B6809182160EDE71A4646
:1053C0005B680BB1A342FAD911685018A0420BD107
:1053D00020680144501883421160E0D118685B686E
:1053E000536008441060DAE702D90C232B60D6E73B
:1053F000206821188B4204BF19685B68636004BF92
:10540000091821605460CAE738BD00BF9807002022
:1054100070B50F4E0C463168054611B900F0ACFB73
:1054200030602146284600F0A7FB431C03D14FF013
:10543000FF34204670BDC41C24F00304A042F8D001
:10544000211A284600F098FB0130F2D1EFE700BFA7
:10545000940700202DE9F843CD1C25F003050835FD
:105460000C2D38BF0C25002D064601DBA94204D9BE
:105470000C2333600020BDE8F883DFF8D48000F00F
:1054800069F8D8F800301C4644BB29463046FFF77F
:10549000BFFF431C044658D1D8F800402746002FD0
:1054A00043D1002C4BD023683946304604EB030926
:1054B00000F062FB814542D121686D1A29463046D1
:1054C000FFF7A6FF01303AD023682B442360D8F8B9
:1054D00000305A6862BBC8F800700FE02268521BA7
:1054E00020D40B2A17D96119A342256018BF59602F
:1054F000636808BFC8F8001062514B60304600F086
:105500002FF804F10B00231D20F00700C21A1CBF66
:105510001B1AA350AFE76268A3420CBFC8F8002073
:105520005A60EBE723466468AEE73C467F68B6E71F
:105530001A465B68A342FBD100235360DEE70C23CD
:105540003360304600F00CF894E70560D6E700BF02
:10555000980700200148FFF701BF00BF9007002017
:105560000148FFF7FCBE00BF900700202DE9F0477F
:105570008E681F46BE4282460C469046334653D83C
:10558000B1F90C0010F4906F2BD06569236809699C
:1055900005EB4505A3EB010905EBD5757B1C6D10EB
:1055A0004B44AB422A4684BF1D462A46430527D5B5
:1055B00011465046FFF74EFF064658B321694A464A
:1055C000FFF7CEFEA38923F4906343F08003A38109
:1055D000266165614E44A5EB09052660A5603E463F
:1055E0003B461F4620683A46414600F0ABFAA368A6
:1055F0009B1BA36023683B4423600020BDE8F08729
:10560000504600F0C9FA06460028E1D1216950460B
:10561000FFF7B4FE0C23CAF80030A38943F040031F
:10562000A3814FF0FF30E9E73E46DBE72DE9F04785
:105630001F468B891B069CB006460D46144610D5A6
:105640000B6973B94021FFF705FF2860286130B965
:105650000C2333604FF0FF301CB0BDE8F0874023CF
:105660006B610023099320238DF8293003973023A1
:10567000654F8DF82A304FF001082346994613F8FC
:10568000012B0AB1252AF9D1B9EB040A0BD05346F4
:10569000224629463046FFF769FF013000F0A4801A
:1056A000099A5244099299F80030002B00F09C802E
:1056B00000234FF0FF32CDE9052309F101090493DE
:1056C00007938DF853301A934C464F4814F8011B3A
:1056D0000522FAF785FD049BD0B9D80644BF2022E5
:1056E0008DF85320190744BF2B228DF8532099F8C9
:1056F00000202A2A13D0079A4C4600204FF00A0CAB
:10570000214611F8013B303B092B49D968B913E018
:10571000C01B08FA00F018430490A146D4E7039A8E
:10572000111D12680391002A01DB079204E0524226
:1057300043F002030792049323782E2B0AD1637857
:105740002A2B32D1039B1A1D1B68039243EAE37391
:1057500002340593DFF8C090217803224846FAF717
:105760003FFD38B1049BA0EB090040228240134367
:105770000134049314F8011B24488DF828100622E4
:10578000FAF72EFD002835D0214818BB039B0733BC
:1057900023F0070308330393099B034409936CE741
:1057A0000CFB02320C460120AAE7002301340593CA
:1057B00019464FF00A0C204610F8012B303A092AFE
:1057C00003D9002BC6D00591C4E70CFB0121044688
:1057D0000123F0E703AB00932A460E4B04A93046A1
:1057E000AFF30080421CD7D1AB895B063FF532AFE7
:1057F000099831E703AB00932A46064B04A93046CB
:1058000000F07AF8EEE700BF749600087E96000874
:10581000000000006D5500087A9600082DE9F04759
:10582000164698468A680B69DDF820909342B8BF07
:105830001346336091F8432007460C460AB1013302
:1058400033602368990642BF3368023333602568AA
:1058500015F0060506D104F1190AE36832689B1AAF
:10586000AB4226DC94F843302268003B18BF01238A
:1058700092062BD404F1430241463846C847013012
:105880001ED02368226903F00603042B02BFE568DB
:105890003368ED1AA3680CBF25EAE575002593422D
:1058A000C4BF9B1AED1800261A34B5421AD1002045
:1058B00008E00123524641463846C847013003D12B
:1058C0004FF0FF30BDE8F0870135C6E7E1185A1CFC
:1058D000302081F84300224494F8451082F84310A8
:1058E0000233C7E70123224641463846C847013004
:1058F000E6D00136D9E700002DE9F0430D7E85B0F2
:10590000782D90460C9E07460C46994601F14302BD
:1059100007D8622D0AD8002D00F0D780582D00F04E
:10592000BC8004F1420684F842503BE0A5F16303D9
:10593000152BF6D801A151F823F000BF95590008A6
:10594000A9590008235900082359000823590008C1
:1059500023590008A95900082359000823590008B1
:105960002359000823590008B15A0008D3590008E8
:10597000635A00082359000823590008D35A000825
:1059800023590008D3590008235900082359000857
:105990006B5A000833681A1D1B68326004F1420616
:1059A00084F842300123A1E033682068191D31607A
:1059B000060601D51D6803E04506FBD5B3F9005086
:1059C000002D03DA2D236D4284F843305B480A230F
:1059D00011E021683368080653F8045B02D44906D5
:1059E00048BFADB23360237E54486F2B5CD108238F
:1059F000002184F843106668A660002E05DB21684C
:105A00002E4321F00401216050D01646B5FBF3F17E
:105A100003FB115C10F80CC006F801CDAC466345E1
:105A20000D46F3D9082B0BD12368DB0708D5236972
:105A300061689942DEBF302306F8013C06F1FF366B
:105A4000921B2261CDF80090434603AA21463846B6
:105A5000FFF7E4FE01304ED14FF0FF3005B0BDE856
:105A6000F083236843F0200323603548782584F8C9
:105A700045502368316813F0800F51F8045B03D15F
:105A800013F0400F18BFADB23160D90744BF43F0E7
:105A9000200323601DB11023AAE72848E7E7236805
:105AA00023F020032360F6E70A23A1E71646B9E7AF
:105AB000336825686169181D30602E061B6801D5A2
:105AC000196002E06806FBD51980002323611646A1
:105AD000B8E733681A1D32601E68626800213046DC
